{
	"will.sol": {
		"will": {
			"abi": [
				{
					"inputs": [],
					"stateMutability": "payable",
					"type": "constructor"
				},
				{
					"inputs": [],
					"name": "hasDeceased",
					"outputs": [],
					"stateMutability": "nonpayable",
					"type": "function"
				},
				{
					"inputs": [
						{
							"internalType": "address payable",
							"name": "wallet",
							"type": "address"
						},
						{
							"internalType": "uint256",
							"name": "amount",
							"type": "uint256"
						}
					],
					"name": "setInheritence",
					"outputs": [],
					"stateMutability": "nonpayable",
					"type": "function"
				}
			],
			"devdoc": {
				"kind": "dev",
				"methods": {},
				"version": 1
			},
			"evm": {
				"assembly": "    /* \"will.sol\":68:1885  contract will {... */\n  mstore(0x40, 0x80)\n    /* \"will.sol\":426:436  msg.sender */\n  caller\n    /* \"will.sol\":418:423  owner */\n  0x00\n  dup1\n    /* \"will.sol\":418:436  owner = msg.sender */\n  0x0100\n  exp\n  dup2\n  sload\n  dup2\n  0xffffffffffffffffffffffffffffffffffffffff\n  mul\n  not\n  and\n  swap1\n  dup4\n  0xffffffffffffffffffffffffffffffffffffffff\n  and\n  mul\n  or\n  swap1\n  sstore\n  pop\n    /* \"will.sol\":514:523  msg.value */\n  callvalue\n    /* \"will.sol\":504:511  fortune */\n  0x01\n    /* \"will.sol\":504:523  fortune = msg.value */\n  dup2\n  swap1\n  sstore\n  pop\n    /* \"will.sol\":595:600  false */\n  0x00\n    /* \"will.sol\":584:592  deceased */\n  0x02\n  0x00\n    /* \"will.sol\":584:600  deceased = false */\n  0x0100\n  exp\n  dup2\n  sload\n  dup2\n  0xff\n  mul\n  not\n  and\n  swap1\n  dup4\n  iszero\n  iszero\n  mul\n  or\n  swap1\n  sstore\n  pop\n    /* \"will.sol\":68:1885  contract will {... */\n  dataSize(sub_0)\n  dup1\n  dataOffset(sub_0)\n  0x00\n  codecopy\n  0x00\n  return\nstop\n\nsub_0: assembly {\n        /* \"will.sol\":68:1885  contract will {... */\n      mstore(0x40, 0x80)\n      callvalue\n      dup1\n      iszero\n      tag_1\n      jumpi\n      0x00\n      dup1\n      revert\n    tag_1:\n      pop\n      jumpi(tag_2, lt(calldatasize, 0x04))\n      shr(0xe0, calldataload(0x00))\n      dup1\n      0xeddcca99\n      eq\n      tag_3\n      jumpi\n      dup1\n      0xfe2c9a08\n      eq\n      tag_4\n      jumpi\n    tag_2:\n      0x00\n      dup1\n      revert\n        /* \"will.sol\":1787:1880  function hasDeceased() public onlyOwner {... */\n    tag_3:\n      tag_5\n      tag_6\n      jump\t// in\n    tag_5:\n      stop\n        /* \"will.sol\":1203:1414  function setInheritence(address payable wallet, uint amount) public onlyOwner {... */\n    tag_4:\n      tag_7\n      0x04\n      dup1\n      calldatasize\n      sub\n      dup2\n      add\n      swap1\n      tag_8\n      swap2\n      swap1\n      tag_9\n      jump\t// in\n    tag_8:\n      tag_10\n      jump\t// in\n    tag_7:\n      stop\n        /* \"will.sol\":1787:1880  function hasDeceased() public onlyOwner {... */\n    tag_6:\n        /* \"will.sol\":753:758  owner */\n      0x00\n      dup1\n      sload\n      swap1\n      0x0100\n      exp\n      swap1\n      div\n      0xffffffffffffffffffffffffffffffffffffffff\n      and\n        /* \"will.sol\":739:758  msg.sender == owner */\n      0xffffffffffffffffffffffffffffffffffffffff\n      and\n        /* \"will.sol\":739:749  msg.sender */\n      caller\n        /* \"will.sol\":739:758  msg.sender == owner */\n      0xffffffffffffffffffffffffffffffffffffffff\n      and\n      eq\n        /* \"will.sol\":731:759  require(msg.sender == owner) */\n      tag_12\n      jumpi\n      0x00\n      dup1\n      revert\n    tag_12:\n        /* \"will.sol\":1849:1853  true */\n      0x01\n        /* \"will.sol\":1838:1846  deceased */\n      0x02\n      0x00\n        /* \"will.sol\":1838:1853  deceased = true */\n      0x0100\n      exp\n      dup2\n      sload\n      dup2\n      0xff\n      mul\n      not\n      and\n      swap1\n      dup4\n      iszero\n      iszero\n      mul\n      or\n      swap1\n      sstore\n      pop\n        /* \"will.sol\":1864:1872  payout() */\n      tag_14\n        /* \"will.sol\":1864:1870  payout */\n      tag_15\n        /* \"will.sol\":1864:1872  payout() */\n      jump\t// in\n    tag_14:\n        /* \"will.sol\":1787:1880  function hasDeceased() public onlyOwner {... */\n      jump\t// out\n        /* \"will.sol\":1203:1414  function setInheritence(address payable wallet, uint amount) public onlyOwner {... */\n    tag_10:\n        /* \"will.sol\":753:758  owner */\n      0x00\n      dup1\n      sload\n      swap1\n      0x0100\n      exp\n      swap1\n      div\n      0xffffffffffffffffffffffffffffffffffffffff\n      and\n        /* \"will.sol\":739:758  msg.sender == owner */\n      0xffffffffffffffffffffffffffffffffffffffff\n      and\n        /* \"will.sol\":739:749  msg.sender */\n      caller\n        /* \"will.sol\":739:758  msg.sender == owner */\n      0xffffffffffffffffffffffffffffffffffffffff\n      and\n      eq\n        /* \"will.sol\":731:759  require(msg.sender == owner) */\n      tag_17\n      jumpi\n      0x00\n      dup1\n      revert\n    tag_17:\n        /* \"will.sol\":1341:1354  familyWallets */\n      0x03\n        /* \"will.sol\":1360:1366  wallet */\n      dup3\n        /* \"will.sol\":1341:1367  familyWallets.push(wallet) */\n      swap1\n      dup1\n      0x01\n      dup2\n      sload\n      add\n      dup1\n      dup3\n      sstore\n      dup1\n      swap2\n      pop\n      pop\n      0x01\n      swap1\n      sub\n      swap1\n      0x00\n      mstore\n      keccak256(0x00, 0x20)\n      add\n      0x00\n      swap1\n      swap2\n      swap1\n      swap2\n      swap1\n      swap2\n      0x0100\n      exp\n      dup2\n      sload\n      dup2\n      0xffffffffffffffffffffffffffffffffffffffff\n      mul\n      not\n      and\n      swap1\n      dup4\n      0xffffffffffffffffffffffffffffffffffffffff\n      and\n      mul\n      or\n      swap1\n      sstore\n      pop\n        /* \"will.sol\":1400:1406  amount */\n      dup1\n        /* \"will.sol\":1378:1389  inheritence */\n      0x04\n        /* \"will.sol\":1378:1397  inheritence[wallet] */\n      0x00\n        /* \"will.sol\":1390:1396  wallet */\n      dup5\n        /* \"will.sol\":1378:1397  inheritence[wallet] */\n      0xffffffffffffffffffffffffffffffffffffffff\n      and\n      0xffffffffffffffffffffffffffffffffffffffff\n      and\n      dup2\n      mstore\n      0x20\n      add\n      swap1\n      dup2\n      mstore\n      0x20\n      add\n      0x00\n      keccak256\n        /* \"will.sol\":1378:1406  inheritence[wallet] = amount */\n      dup2\n      swap1\n      sstore\n      pop\n        /* \"will.sol\":1203:1414  function setInheritence(address payable wallet, uint amount) public onlyOwner {... */\n      pop\n      pop\n      jump\t// out\n        /* \"will.sol\":1482:1747  function payout() private mustBeDeceased {... */\n    tag_15:\n        /* \"will.sol\":981:985  true */\n      0x01\n        /* \"will.sol\":969:985  deceased == true */\n      iszero\n      iszero\n        /* \"will.sol\":969:977  deceased */\n      0x02\n      0x00\n      swap1\n      sload\n      swap1\n      0x0100\n      exp\n      swap1\n      div\n      0xff\n      and\n        /* \"will.sol\":969:985  deceased == true */\n      iszero\n      iszero\n      eq\n        /* \"will.sol\":961:986  require(deceased == true) */\n      tag_21\n      jumpi\n      0x00\n      dup1\n      revert\n    tag_21:\n        /* \"will.sol\":1539:1545  uint i */\n      0x00\n        /* \"will.sol\":1534:1740  for (uint i=0; i<familyWallets.length; i++) {... */\n    tag_23:\n        /* \"will.sol\":1551:1564  familyWallets */\n      0x03\n        /* \"will.sol\":1551:1571  familyWallets.length */\n      dup1\n      sload\n      swap1\n      pop\n        /* \"will.sol\":1549:1550  i */\n      dup2\n        /* \"will.sol\":1549:1571  i<familyWallets.length */\n      lt\n        /* \"will.sol\":1534:1740  for (uint i=0; i<familyWallets.length; i++) {... */\n      iszero\n      tag_24\n      jumpi\n        /* \"will.sol\":1593:1606  familyWallets */\n      0x03\n        /* \"will.sol\":1607:1608  i */\n      dup2\n        /* \"will.sol\":1593:1609  familyWallets[i] */\n      dup2\n      sload\n      dup2\n      lt\n      tag_26\n      jumpi\n      tag_27\n      tag_28\n      jump\t// in\n    tag_27:\n    tag_26:\n      swap1\n      0x00\n      mstore\n      keccak256(0x00, 0x20)\n      add\n      0x00\n      swap1\n      sload\n      swap1\n      0x0100\n      exp\n      swap1\n      div\n      0xffffffffffffffffffffffffffffffffffffffff\n      and\n        /* \"will.sol\":1593:1618  familyWallets[i].transfer */\n      0xffffffffffffffffffffffffffffffffffffffff\n      and\n        /* \"will.sol\":1593:1649  familyWallets[i].transfer(inheritence[familyWallets[i]]) */\n      0x08fc\n        /* \"will.sol\":1619:1630  inheritence */\n      0x04\n        /* \"will.sol\":1619:1648  inheritence[familyWallets[i]] */\n      0x00\n        /* \"will.sol\":1631:1644  familyWallets */\n      0x03\n        /* \"will.sol\":1645:1646  i */\n      dup6\n        /* \"will.sol\":1631:1647  familyWallets[i] */\n      dup2\n      sload\n      dup2\n      lt\n      tag_30\n      jumpi\n      tag_31\n      tag_28\n      jump\t// in\n    tag_31:\n    tag_30:\n      swap1\n      0x00\n      mstore\n      keccak256(0x00, 0x20)\n      add\n      0x00\n      swap1\n      sload\n      swap1\n      0x0100\n      exp\n      swap1\n      div\n      0xffffffffffffffffffffffffffffffffffffffff\n      and\n        /* \"will.sol\":1619:1648  inheritence[familyWallets[i]] */\n      0xffffffffffffffffffffffffffffffffffffffff\n      and\n      0xffffffffffffffffffffffffffffffffffffffff\n      and\n      dup2\n      mstore\n      0x20\n      add\n      swap1\n      dup2\n      mstore\n      0x20\n      add\n      0x00\n      keccak256\n      sload\n        /* \"will.sol\":1593:1649  familyWallets[i].transfer(inheritence[familyWallets[i]]) */\n      swap1\n      dup2\n      iszero\n      mul\n      swap1\n      mload(0x40)\n      0x00\n      mload(0x40)\n      dup1\n      dup4\n      sub\n      dup2\n      dup6\n      dup9\n      dup9\n      call\n      swap4\n      pop\n      pop\n      pop\n      pop\n      iszero\n      dup1\n      iszero\n      tag_34\n      jumpi\n      returndatasize\n      0x00\n      dup1\n      returndatacopy\n      revert(0x00, returndatasize)\n    tag_34:\n      pop\n        /* \"will.sol\":1573:1576  i++ */\n      dup1\n      dup1\n      0x01\n      add\n      swap2\n      pop\n      pop\n        /* \"will.sol\":1534:1740  for (uint i=0; i<familyWallets.length; i++) {... */\n      jump(tag_23)\n    tag_24:\n      pop\n        /* \"will.sol\":1482:1747  function payout() private mustBeDeceased {... */\n      jump\t// out\n        /* \"#utility.yul\":88:205   */\n    tag_36:\n        /* \"#utility.yul\":197:198   */\n      0x00\n        /* \"#utility.yul\":194:195   */\n      dup1\n        /* \"#utility.yul\":187:199   */\n      revert\n        /* \"#utility.yul\":334:460   */\n    tag_38:\n        /* \"#utility.yul\":371:378   */\n      0x00\n        /* \"#utility.yul\":411:453   */\n      0xffffffffffffffffffffffffffffffffffffffff\n        /* \"#utility.yul\":404:409   */\n      dup3\n        /* \"#utility.yul\":400:454   */\n      and\n        /* \"#utility.yul\":389:454   */\n      swap1\n      pop\n        /* \"#utility.yul\":334:460   */\n      swap2\n      swap1\n      pop\n      jump\t// out\n        /* \"#utility.yul\":466:570   */\n    tag_39:\n        /* \"#utility.yul\":511:518   */\n      0x00\n        /* \"#utility.yul\":540:564   */\n      tag_51\n        /* \"#utility.yul\":558:563   */\n      dup3\n        /* \"#utility.yul\":540:564   */\n      tag_38\n      jump\t// in\n    tag_51:\n        /* \"#utility.yul\":529:564   */\n      swap1\n      pop\n        /* \"#utility.yul\":466:570   */\n      swap2\n      swap1\n      pop\n      jump\t// out\n        /* \"#utility.yul\":576:714   */\n    tag_40:\n        /* \"#utility.yul\":657:689   */\n      tag_53\n        /* \"#utility.yul\":683:688   */\n      dup2\n        /* \"#utility.yul\":657:689   */\n      tag_39\n      jump\t// in\n    tag_53:\n        /* \"#utility.yul\":650:655   */\n      dup2\n        /* \"#utility.yul\":647:690   */\n      eq\n        /* \"#utility.yul\":637:708   */\n      tag_54\n      jumpi\n        /* \"#utility.yul\":704:705   */\n      0x00\n        /* \"#utility.yul\":701:702   */\n      dup1\n        /* \"#utility.yul\":694:706   */\n      revert\n        /* \"#utility.yul\":637:708   */\n    tag_54:\n        /* \"#utility.yul\":576:714   */\n      pop\n      jump\t// out\n        /* \"#utility.yul\":720:875   */\n    tag_41:\n        /* \"#utility.yul\":774:779   */\n      0x00\n        /* \"#utility.yul\":812:818   */\n      dup2\n        /* \"#utility.yul\":799:819   */\n      calldataload\n        /* \"#utility.yul\":790:819   */\n      swap1\n      pop\n        /* \"#utility.yul\":828:869   */\n      tag_56\n        /* \"#utility.yul\":863:868   */\n      dup2\n        /* \"#utility.yul\":828:869   */\n      tag_40\n      jump\t// in\n    tag_56:\n        /* \"#utility.yul\":720:875   */\n      swap3\n      swap2\n      pop\n      pop\n      jump\t// out\n        /* \"#utility.yul\":881:958   */\n    tag_42:\n        /* \"#utility.yul\":918:925   */\n      0x00\n        /* \"#utility.yul\":947:952   */\n      dup2\n        /* \"#utility.yul\":936:952   */\n      swap1\n      pop\n        /* \"#utility.yul\":881:958   */\n      swap2\n      swap1\n      pop\n      jump\t// out\n        /* \"#utility.yul\":964:1086   */\n    tag_43:\n        /* \"#utility.yul\":1037:1061   */\n      tag_59\n        /* \"#utility.yul\":1055:1060   */\n      dup2\n        /* \"#utility.yul\":1037:1061   */\n      tag_42\n      jump\t// in\n    tag_59:\n        /* \"#utility.yul\":1030:1035   */\n      dup2\n        /* \"#utility.yul\":1027:1062   */\n      eq\n        /* \"#utility.yul\":1017:1080   */\n      tag_60\n      jumpi\n        /* \"#utility.yul\":1076:1077   */\n      0x00\n        /* \"#utility.yul\":1073:1074   */\n      dup1\n        /* \"#utility.yul\":1066:1078   */\n      revert\n        /* \"#utility.yul\":1017:1080   */\n    tag_60:\n        /* \"#utility.yul\":964:1086   */\n      pop\n      jump\t// out\n        /* \"#utility.yul\":1092:1231   */\n    tag_44:\n        /* \"#utility.yul\":1138:1143   */\n      0x00\n        /* \"#utility.yul\":1176:1182   */\n      dup2\n        /* \"#utility.yul\":1163:1183   */\n      calldataload\n        /* \"#utility.yul\":1154:1183   */\n      swap1\n      pop\n        /* \"#utility.yul\":1192:1225   */\n      tag_62\n        /* \"#utility.yul\":1219:1224   */\n      dup2\n        /* \"#utility.yul\":1192:1225   */\n      tag_43\n      jump\t// in\n    tag_62:\n        /* \"#utility.yul\":1092:1231   */\n      swap3\n      swap2\n      pop\n      pop\n      jump\t// out\n        /* \"#utility.yul\":1237:1727   */\n    tag_9:\n        /* \"#utility.yul\":1313:1319   */\n      0x00\n        /* \"#utility.yul\":1321:1327   */\n      dup1\n        /* \"#utility.yul\":1370:1372   */\n      0x40\n        /* \"#utility.yul\":1358:1367   */\n      dup4\n        /* \"#utility.yul\":1349:1356   */\n      dup6\n        /* \"#utility.yul\":1345:1368   */\n      sub\n        /* \"#utility.yul\":1341:1373   */\n      slt\n        /* \"#utility.yul\":1338:1457   */\n      iszero\n      tag_64\n      jumpi\n        /* \"#utility.yul\":1376:1455   */\n      tag_65\n      tag_36\n      jump\t// in\n    tag_65:\n        /* \"#utility.yul\":1338:1457   */\n    tag_64:\n        /* \"#utility.yul\":1496:1497   */\n      0x00\n        /* \"#utility.yul\":1521:1582   */\n      tag_66\n        /* \"#utility.yul\":1574:1581   */\n      dup6\n        /* \"#utility.yul\":1565:1571   */\n      dup3\n        /* \"#utility.yul\":1554:1563   */\n      dup7\n        /* \"#utility.yul\":1550:1572   */\n      add\n        /* \"#utility.yul\":1521:1582   */\n      tag_41\n      jump\t// in\n    tag_66:\n        /* \"#utility.yul\":1511:1582   */\n      swap3\n      pop\n        /* \"#utility.yul\":1467:1592   */\n      pop\n        /* \"#utility.yul\":1631:1633   */\n      0x20\n        /* \"#utility.yul\":1657:1710   */\n      tag_67\n        /* \"#utility.yul\":1702:1709   */\n      dup6\n        /* \"#utility.yul\":1693:1699   */\n      dup3\n        /* \"#utility.yul\":1682:1691   */\n      dup7\n        /* \"#utility.yul\":1678:1700   */\n      add\n        /* \"#utility.yul\":1657:1710   */\n      tag_44\n      jump\t// in\n    tag_67:\n        /* \"#utility.yul\":1647:1710   */\n      swap2\n      pop\n        /* \"#utility.yul\":1602:1720   */\n      pop\n        /* \"#utility.yul\":1237:1727   */\n      swap3\n      pop\n      swap3\n      swap1\n      pop\n      jump\t// out\n        /* \"#utility.yul\":1733:1913   */\n    tag_28:\n        /* \"#utility.yul\":1781:1858   */\n      0x4e487b7100000000000000000000000000000000000000000000000000000000\n        /* \"#utility.yul\":1778:1779   */\n      0x00\n        /* \"#utility.yul\":1771:1859   */\n      mstore\n        /* \"#utility.yul\":1878:1882   */\n      0x32\n        /* \"#utility.yul\":1875:1876   */\n      0x04\n        /* \"#utility.yul\":1868:1883   */\n      mstore\n        /* \"#utility.yul\":1902:1906   */\n      0x24\n        /* \"#utility.yul\":1899:1900   */\n      0x00\n        /* \"#utility.yul\":1892:1907   */\n      revert\n\n    auxdata: 0xa2646970667358221220197fd9665080740de24cc0fd4b905b159e1929990384a94742934bd7d2721d4464736f6c634300081a0033\n}\n",
				"bytecode": {
					"linkReferences": {},
					"object": "6080604052335f806101000a81548173ffffffffffffffffffffffffffffffffffffffff021916908373ffffffffffffffffffffffffffffffffffffffff160217905550346001819055505f60025f6101000a81548160ff02191690831515021790555061043a806100705f395ff3fe608060405234801561000f575f80fd5b5060043610610034575f3560e01c8063eddcca9914610038578063fe2c9a0814610042575b5f80fd5b61004061005e565b005b61005c60048036038101906100579190610399565b6100d8565b005b5f8054906101000a900473ffffffffffffffffffffffffffffffffffffffff1673ffffffffffffffffffffffffffffffffffffffff163373ffffffffffffffffffffffffffffffffffffffff16146100b4575f80fd5b600160025f6101000a81548160ff0219169083151502179055506100d66101d4565b565b5f8054906101000a900473ffffffffffffffffffffffffffffffffffffffff1673ffffffffffffffffffffffffffffffffffffffff163373ffffffffffffffffffffffffffffffffffffffff161461012e575f80fd5b600382908060018154018082558091505060019003905f5260205f20015f9091909190916101000a81548173ffffffffffffffffffffffffffffffffffffffff021916908373ffffffffffffffffffffffffffffffffffffffff1602179055508060045f8473ffffffffffffffffffffffffffffffffffffffff1673ffffffffffffffffffffffffffffffffffffffff1681526020019081526020015f20819055505050565b6001151560025f9054906101000a900460ff161515146101f2575f80fd5b5f5b6003805490508110156103055760038181548110610215576102146103d7565b5b905f5260205f20015f9054906101000a900473ffffffffffffffffffffffffffffffffffffffff1673ffffffffffffffffffffffffffffffffffffffff166108fc60045f6003858154811061026d5761026c6103d7565b5b905f5260205f20015f9054906101000a900473ffffffffffffffffffffffffffffffffffffffff1673ffffffffffffffffffffffffffffffffffffffff1673ffffffffffffffffffffffffffffffffffffffff1681526020019081526020015f205490811502906040515f60405180830381858888f193505050501580156102f7573d5f803e3d5ffd5b5080806001019150506101f4565b50565b5f80fd5b5f73ffffffffffffffffffffffffffffffffffffffff82169050919050565b5f6103358261030c565b9050919050565b6103458161032b565b811461034f575f80fd5b50565b5f813590506103608161033c565b92915050565b5f819050919050565b61037881610366565b8114610382575f80fd5b50565b5f813590506103938161036f565b92915050565b5f80604083850312156103af576103ae610308565b5b5f6103bc85828601610352565b92505060206103cd85828601610385565b9150509250929050565b7f4e487b71000000000000000000000000000000000000000000000000000000005f52603260045260245ffdfea2646970667358221220197fd9665080740de24cc0fd4b905b159e1929990384a94742934bd7d2721d4464736f6c634300081a0033",
					"opcodes": "PUSH1 0x80 PUSH1 0x40 MSTORE CALLER PUSH0 DUP1 PUSH2 0x100 EXP DUP2 SLOAD DUP2 PUSH20 0xFFFFFFFFFFFFFFFFFFFFFFFFFFFFFFFFFFFFFFFF MUL NOT AND SWAP1 DUP4 PUSH20 0xFFFFFFFFFFFFFFFFFFFFFFFFFFFFFFFFFFFFFFFF AND MUL OR SWAP1 SSTORE POP CALLVALUE PUSH1 0x1 DUP2 SWAP1 SSTORE POP PUSH0 PUSH1 0x2 PUSH0 PUSH2 0x100 EXP DUP2 SLOAD DUP2 PUSH1 0xFF MUL NOT AND SWAP1 DUP4 ISZERO ISZERO MUL OR SWAP1 SSTORE POP PUSH2 0x43A DUP1 PUSH2 0x70 PUSH0 CODECOPY PUSH0 RETURN INVALID PUSH1 0x80 PUSH1 0x40 MSTORE CALLVALUE DUP1 ISZERO PUSH2 0xF JUMPI PUSH0 DUP1 REVERT JUMPDEST POP PUSH1 0x4 CALLDATASIZE LT PUSH2 0x34 JUMPI PUSH0 CALLDATALOAD PUSH1 0xE0 SHR DUP1 PUSH4 0xEDDCCA99 EQ PUSH2 0x38 JUMPI DUP1 PUSH4 0xFE2C9A08 EQ PUSH2 0x42 JUMPI JUMPDEST PUSH0 DUP1 REVERT JUMPDEST PUSH2 0x40 PUSH2 0x5E JUMP JUMPDEST STOP JUMPDEST PUSH2 0x5C PUSH1 0x4 DUP1 CALLDATASIZE SUB DUP2 ADD SWAP1 PUSH2 0x57 SWAP2 SWAP1 PUSH2 0x399 JUMP JUMPDEST PUSH2 0xD8 JUMP JUMPDEST STOP JUMPDEST PUSH0 DUP1 SLOAD SWAP1 PUSH2 0x100 EXP SWAP1 DIV PUSH20 0xFFFFFFFFFFFFFFFFFFFFFFFFFFFFFFFFFFFFFFFF AND PUSH20 0xFFFFFFFFFFFFFFFFFFFFFFFFFFFFFFFFFFFFFFFF AND CALLER PUSH20 0xFFFFFFFFFFFFFFFFFFFFFFFFFFFFFFFFFFFFFFFF AND EQ PUSH2 0xB4 JUMPI PUSH0 DUP1 REVERT JUMPDEST PUSH1 0x1 PUSH1 0x2 PUSH0 PUSH2 0x100 EXP DUP2 SLOAD DUP2 PUSH1 0xFF MUL NOT AND SWAP1 DUP4 ISZERO ISZERO MUL OR SWAP1 SSTORE POP PUSH2 0xD6 PUSH2 0x1D4 JUMP JUMPDEST JUMP JUMPDEST PUSH0 DUP1 SLOAD SWAP1 PUSH2 0x100 EXP SWAP1 DIV PUSH20 0xFFFFFFFFFFFFFFFFFFFFFFFFFFFFFFFFFFFFFFFF AND PUSH20 0xFFFFFFFFFFFFFFFFFFFFFFFFFFFFFFFFFFFFFFFF AND CALLER PUSH20 0xFFFFFFFFFFFFFFFFFFFFFFFFFFFFFFFFFFFFFFFF AND EQ PUSH2 0x12E JUMPI PUSH0 DUP1 REVERT JUMPDEST PUSH1 0x3 DUP3 SWAP1 DUP1 PUSH1 0x1 DUP2 SLOAD ADD DUP1 DUP3 SSTORE DUP1 SWAP2 POP POP PUSH1 0x1 SWAP1 SUB SWAP1 PUSH0 MSTORE PUSH1 0x20 PUSH0 KECCAK256 ADD PUSH0 SWAP1 SWAP2 SWAP1 SWAP2 SWAP1 SWAP2 PUSH2 0x100 EXP DUP2 SLOAD DUP2 PUSH20 0xFFFFFFFFFFFFFFFFFFFFFFFFFFFFFFFFFFFFFFFF MUL NOT AND SWAP1 DUP4 PUSH20 0xFFFFFFFFFFFFFFFFFFFFFFFFFFFFFFFFFFFFFFFF AND MUL OR SWAP1 SSTORE POP DUP1 PUSH1 0x4 PUSH0 DUP5 PUSH20 0xFFFFFFFFFFFFFFFFFFFFFFFFFFFFFFFFFFFFFFFF AND PUSH20 0xFFFFFFFFFFFFFFFFFFFFFFFFFFFFFFFFFFFFFFFF AND DUP2 MSTORE PUSH1 0x20 ADD SWAP1 DUP2 MSTORE PUSH1 0x20 ADD PUSH0 KECCAK256 DUP2 SWAP1 SSTORE POP POP POP JUMP JUMPDEST PUSH1 0x1 ISZERO ISZERO PUSH1 0x2 PUSH0 SWAP1 SLOAD SWAP1 PUSH2 0x100 EXP SWAP1 DIV PUSH1 0xFF AND ISZERO ISZERO EQ PUSH2 0x1F2 JUMPI PUSH0 DUP1 REVERT JUMPDEST PUSH0 JUMPDEST PUSH1 0x3 DUP1 SLOAD SWAP1 POP DUP2 LT ISZERO PUSH2 0x305 JUMPI PUSH1 0x3 DUP2 DUP2 SLOAD DUP2 LT PUSH2 0x215 JUMPI PUSH2 0x214 PUSH2 0x3D7 JUMP JUMPDEST JUMPDEST SWAP1 PUSH0 MSTORE PUSH1 0x20 PUSH0 KECCAK256 ADD PUSH0 SWAP1 SLOAD SWAP1 PUSH2 0x100 EXP SWAP1 DIV PUSH20 0xFFFFFFFFFFFFFFFFFFFFFFFFFFFFFFFFFFFFFFFF AND PUSH20 0xFFFFFFFFFFFFFFFFFFFFFFFFFFFFFFFFFFFFFFFF AND PUSH2 0x8FC PUSH1 0x4 PUSH0 PUSH1 0x3 DUP6 DUP2 SLOAD DUP2 LT PUSH2 0x26D JUMPI PUSH2 0x26C PUSH2 0x3D7 JUMP JUMPDEST JUMPDEST SWAP1 PUSH0 MSTORE PUSH1 0x20 PUSH0 KECCAK256 ADD PUSH0 SWAP1 SLOAD SWAP1 PUSH2 0x100 EXP SWAP1 DIV PUSH20 0xFFFFFFFFFFFFFFFFFFFFFFFFFFFFFFFFFFFFFFFF AND PUSH20 0xFFFFFFFFFFFFFFFFFFFFFFFFFFFFFFFFFFFFFFFF AND PUSH20 0xFFFFFFFFFFFFFFFFFFFFFFFFFFFFFFFFFFFFFFFF AND DUP2 MSTORE PUSH1 0x20 ADD SWAP1 DUP2 MSTORE PUSH1 0x20 ADD PUSH0 KECCAK256 SLOAD SWAP1 DUP2 ISZERO MUL SWAP1 PUSH1 0x40 MLOAD PUSH0 PUSH1 0x40 MLOAD DUP1 DUP4 SUB DUP2 DUP6 DUP9 DUP9 CALL SWAP4 POP POP POP POP ISZERO DUP1 ISZERO PUSH2 0x2F7 JUMPI RETURNDATASIZE PUSH0 DUP1 RETURNDATACOPY RETURNDATASIZE PUSH0 REVERT JUMPDEST POP DUP1 DUP1 PUSH1 0x1 ADD SWAP2 POP POP PUSH2 0x1F4 JUMP JUMPDEST POP JUMP JUMPDEST PUSH0 DUP1 REVERT JUMPDEST PUSH0 PUSH20 0xFFFFFFFFFFFFFFFFFFFFFFFFFFFFFFFFFFFFFFFF DUP3 AND SWAP1 POP SWAP2 SWAP1 POP JUMP JUMPDEST PUSH0 PUSH2 0x335 DUP3 PUSH2 0x30C JUMP JUMPDEST SWAP1 POP SWAP2 SWAP1 POP JUMP JUMPDEST PUSH2 0x345 DUP2 PUSH2 0x32B JUMP JUMPDEST DUP2 EQ PUSH2 0x34F JUMPI PUSH0 DUP1 REVERT JUMPDEST POP JUMP JUMPDEST PUSH0 DUP2 CALLDATALOAD SWAP1 POP PUSH2 0x360 DUP2 PUSH2 0x33C JUMP JUMPDEST SWAP3 SWAP2 POP POP JUMP JUMPDEST PUSH0 DUP2 SWAP1 POP SWAP2 SWAP1 POP JUMP JUMPDEST PUSH2 0x378 DUP2 PUSH2 0x366 JUMP JUMPDEST DUP2 EQ PUSH2 0x382 JUMPI PUSH0 DUP1 REVERT JUMPDEST POP JUMP JUMPDEST PUSH0 DUP2 CALLDATALOAD SWAP1 POP PUSH2 0x393 DUP2 PUSH2 0x36F JUMP JUMPDEST SWAP3 SWAP2 POP POP JUMP JUMPDEST PUSH0 DUP1 PUSH1 0x40 DUP4 DUP6 SUB SLT ISZERO PUSH2 0x3AF JUMPI PUSH2 0x3AE PUSH2 0x308 JUMP JUMPDEST JUMPDEST PUSH0 PUSH2 0x3BC DUP6 DUP3 DUP7 ADD PUSH2 0x352 JUMP JUMPDEST SWAP3 POP POP PUSH1 0x20 PUSH2 0x3CD DUP6 DUP3 DUP7 ADD PUSH2 0x385 JUMP JUMPDEST SWAP2 POP POP SWAP3 POP SWAP3 SWAP1 POP JUMP JUMPDEST PUSH32 0x4E487B7100000000000000000000000000000000000000000000000000000000 PUSH0 MSTORE PUSH1 0x32 PUSH1 0x4 MSTORE PUSH1 0x24 PUSH0 REVERT INVALID LOG2 PUSH5 0x6970667358 0x22 SLT KECCAK256 NOT PUSH32 0xD9665080740DE24CC0FD4B905B159E1929990384A94742934BD7D2721D446473 PUSH16 0x6C634300081A00330000000000000000 "
				},
				"gasEstimates": {
					"creation": {
						"codeDepositCost": "216400",
						"executionCost": "70874",
						"totalCost": "287274"
					},
					"external": {
						"hasDeceased()": "infinite",
						"setInheritence(address,uint256)": "73564"
					},
					"internal": {
						"payout()": "infinite"
					}
				},
				"methodIdentifiers": {
					"hasDeceased()": "eddcca99",
					"setInheritence(address,uint256)": "fe2c9a08"
				}
			},
			"storageLayout": {
				"storage": [
					{
						"astId": 3,
						"contract": "will.sol:will",
						"label": "owner",
						"offset": 0,
						"slot": "0",
						"type": "t_address"
					},
					{
						"astId": 5,
						"contract": "will.sol:will",
						"label": "fortune",
						"offset": 0,
						"slot": "1",
						"type": "t_uint256"
					},
					{
						"astId": 7,
						"contract": "will.sol:will",
						"label": "deceased",
						"offset": 0,
						"slot": "2",
						"type": "t_bool"
					},
					{
						"astId": 49,
						"contract": "will.sol:will",
						"label": "familyWallets",
						"offset": 0,
						"slot": "3",
						"type": "t_array(t_address_payable)dyn_storage"
					},
					{
						"astId": 53,
						"contract": "will.sol:will",
						"label": "inheritence",
						"offset": 0,
						"slot": "4",
						"type": "t_mapping(t_address,t_uint256)"
					}
				],
				"types": {
					"t_address": {
						"encoding": "inplace",
						"label": "address",
						"numberOfBytes": "20"
					},
					"t_address_payable": {
						"encoding": "inplace",
						"label": "address payable",
						"numberOfBytes": "20"
					},
					"t_array(t_address_payable)dyn_storage": {
						"base": "t_address_payable",
						"encoding": "dynamic_array",
						"label": "address payable[]",
						"numberOfBytes": "32"
					},
					"t_bool": {
						"encoding": "inplace",
						"label": "bool",
						"numberOfBytes": "1"
					},
					"t_mapping(t_address,t_uint256)": {
						"encoding": "mapping",
						"key": "t_address",
						"label": "mapping(address => uint256)",
						"numberOfBytes": "32",
						"value": "t_uint256"
					},
					"t_uint256": {
						"encoding": "inplace",
						"label": "uint256",
						"numberOfBytes": "32"
					}
				}
			},
			"userdoc": {
				"kind": "user",
				"methods": {},
				"version": 1
			}
		}
	}
}